{
  "contractName": "ImageStore",
  "abi": [
    {
      "inputs": [],
      "payable": false,
      "stateMutability": "nonpayable",
      "type": "constructor"
    },
    {
      "constant": true,
      "inputs": [
        {
          "internalType": "uint256",
          "name": "",
          "type": "uint256"
        }
      ],
      "name": "images",
      "outputs": [
        {
          "internalType": "uint256",
          "name": "stock",
          "type": "uint256"
        }
      ],
      "payable": false,
      "stateMutability": "view",
      "type": "function"
    },
    {
      "constant": true,
      "inputs": [],
      "name": "maxPurchasePerUser",
      "outputs": [
        {
          "internalType": "uint256",
          "name": "",
          "type": "uint256"
        }
      ],
      "payable": false,
      "stateMutability": "view",
      "type": "function"
    },
    {
      "constant": true,
      "inputs": [],
      "name": "owner",
      "outputs": [
        {
          "internalType": "address payable",
          "name": "",
          "type": "address"
        }
      ],
      "payable": false,
      "stateMutability": "view",
      "type": "function"
    },
    {
      "constant": true,
      "inputs": [
        {
          "internalType": "uint256",
          "name": "",
          "type": "uint256"
        }
      ],
      "name": "prices",
      "outputs": [
        {
          "internalType": "uint256",
          "name": "",
          "type": "uint256"
        }
      ],
      "payable": false,
      "stateMutability": "view",
      "type": "function"
    },
    {
      "constant": true,
      "inputs": [],
      "name": "totalImages",
      "outputs": [
        {
          "internalType": "uint256",
          "name": "",
          "type": "uint256"
        }
      ],
      "payable": false,
      "stateMutability": "view",
      "type": "function"
    },
    {
      "constant": false,
      "inputs": [
        {
          "internalType": "uint256",
          "name": "imageId",
          "type": "uint256"
        },
        {
          "internalType": "uint256",
          "name": "newPrice",
          "type": "uint256"
        }
      ],
      "name": "setPrice",
      "outputs": [],
      "payable": false,
      "stateMutability": "nonpayable",
      "type": "function"
    },
    {
      "constant": true,
      "inputs": [
        {
          "internalType": "uint256",
          "name": "imageId",
          "type": "uint256"
        }
      ],
      "name": "getPrice",
      "outputs": [
        {
          "internalType": "uint256",
          "name": "",
          "type": "uint256"
        }
      ],
      "payable": false,
      "stateMutability": "view",
      "type": "function"
    },
    {
      "constant": false,
      "inputs": [
        {
          "internalType": "uint256",
          "name": "imageId",
          "type": "uint256"
        }
      ],
      "name": "buyImage",
      "outputs": [
        {
          "internalType": "uint256",
          "name": "",
          "type": "uint256"
        }
      ],
      "payable": true,
      "stateMutability": "payable",
      "type": "function"
    },
    {
      "constant": false,
      "inputs": [
        {
          "internalType": "uint256",
          "name": "imageId",
          "type": "uint256"
        }
      ],
      "name": "resellImage",
      "outputs": [],
      "payable": false,
      "stateMutability": "nonpayable",
      "type": "function"
    },
    {
      "constant": true,
      "inputs": [
        {
          "internalType": "uint256",
          "name": "imageId",
          "type": "uint256"
        }
      ],
      "name": "getStock",
      "outputs": [
        {
          "internalType": "uint256",
          "name": "",
          "type": "uint256"
        }
      ],
      "payable": false,
      "stateMutability": "view",
      "type": "function"
    },
    {
      "constant": true,
      "inputs": [],
      "name": "getAllStocks",
      "outputs": [
        {
          "internalType": "uint256[16]",
          "name": "",
          "type": "uint256[16]"
        }
      ],
      "payable": false,
      "stateMutability": "view",
      "type": "function"
    },
    {
      "constant": true,
      "inputs": [
        {
          "internalType": "uint256",
          "name": "imageId",
          "type": "uint256"
        },
        {
          "internalType": "address",
          "name": "user",
          "type": "address"
        }
      ],
      "name": "getUserPurchaseCount",
      "outputs": [
        {
          "internalType": "uint256",
          "name": "",
          "type": "uint256"
        }
      ],
      "payable": false,
      "stateMutability": "view",
      "type": "function"
    },
    {
      "constant": true,
      "inputs": [
        {
          "internalType": "uint256",
          "name": "imageId",
          "type": "uint256"
        }
      ],
      "name": "getBuyers",
      "outputs": [
        {
          "internalType": "address[]",
          "name": "",
          "type": "address[]"
        }
      ],
      "payable": false,
      "stateMutability": "view",
      "type": "function"
    },
    {
      "constant": true,
      "inputs": [
        {
          "internalType": "uint256",
          "name": "imageId",
          "type": "uint256"
        }
      ],
      "name": "getPurchaseHistory",
      "outputs": [
        {
          "internalType": "address[]",
          "name": "",
          "type": "address[]"
        },
        {
          "internalType": "uint256[]",
          "name": "",
          "type": "uint256[]"
        }
      ],
      "payable": false,
      "stateMutability": "view",
      "type": "function"
    },
    {
      "constant": false,
      "inputs": [],
      "name": "withdraw",
      "outputs": [],
      "payable": false,
      "stateMutability": "nonpayable",
      "type": "function"
    }
  ],
  "bytecode": "0x608060405234801561001057600080fd5b50336000806101000a81548173ffffffffffffffffffffffffffffffffffffffff021916908373ffffffffffffffffffffffffffffffffffffffff16021790555060008090505b60108110156100a85760036001600083815260200190815260200160002060000181905550662386f26fc1000060026000838152602001908152602001600020819055508080600101915050610057565b5061141d806100b86000396000f3fe6080604052600436106100e85760003560e01c80639c07209a1161008a578063e757223011610059578063e757223014610442578063f4bf28a014610491578063f7d9757714610569578063fade8834146105ae576100e8565b80639c07209a14610306578063ade5a0a014610375578063bc31c1c1146103c8578063ce561c1f14610417576100e8565b80633ccfd60b116100c65780633ccfd60b146101b95780637feafd20146101d057806384856482146102605780638da5cb5b146102af576100e8565b806303e6af2e146100ed578063368c61121461012f5780633ab7d09a1461016a575b600080fd5b6101196004803603602081101561010357600080fd5b81019080803590602001909291905050506105d9565b6040518082815260200191505060405180910390f35b34801561013b57600080fd5b506101686004803603602081101561015257600080fd5b81019080803590602001909291905050506109fb565b005b34801561017657600080fd5b506101a36004803603602081101561018d57600080fd5b8101908080359060200190929190505050610daa565b6040518082815260200191505060405180910390f35b3480156101c557600080fd5b506101ce610dca565b005b3480156101dc57600080fd5b50610209600480360360208110156101f357600080fd5b8101908080359060200190929190505050610ef6565b6040518080602001828103825283818151815260200191508051906020019060200280838360005b8381101561024c578082015181840152602081019050610231565b505050509050019250505060405180910390f35b34801561026c57600080fd5b506102996004803603602081101561028357600080fd5b8101908080359060200190929190505050610f9a565b6040518082815260200191505060405180910390f35b3480156102bb57600080fd5b506102c4610fb8565b604051808273ffffffffffffffffffffffffffffffffffffffff1673ffffffffffffffffffffffffffffffffffffffff16815260200191505060405180910390f35b34801561031257600080fd5b5061035f6004803603604081101561032957600080fd5b8101908080359060200190929190803573ffffffffffffffffffffffffffffffffffffffff169060200190929190505050610fdd565b6040518082815260200191505060405180910390f35b34801561038157600080fd5b5061038a61103b565b6040518082601060200280838360005b838110156103b557808201518184015260208101905061039a565b5050505090500191505060405180910390f35b3480156103d457600080fd5b50610401600480360360208110156103eb57600080fd5b810190808035906020019092919050505061109b565b6040518082815260200191505060405180910390f35b34801561042357600080fd5b5061042c6110b3565b6040518082815260200191505060405180910390f35b34801561044e57600080fd5b5061047b6004803603602081101561046557600080fd5b81019080803590602001909291905050506110b8565b6040518082815260200191505060405180910390f35b34801561049d57600080fd5b506104ca600480360360208110156104b457600080fd5b81019080803590602001909291905050506110d5565b604051808060200180602001838103835285818151815260200191508051906020019060200280838360005b838110156105115780820151818401526020810190506104f6565b50505050905001838103825284818151815260200191508051906020019060200280838360005b83811015610553578082015181840152602081019050610538565b5050505090500194505050505060405180910390f35b34801561057557600080fd5b506105ac6004803603604081101561058c57600080fd5b81019080803590602001909291908035906020019092919050505061126c565b005b3480156105ba57600080fd5b506105c36113c0565b6040518082815260200191505060405180910390f35b600060108210610651576040517f08c379a00000000000000000000000000000000000000000000000000000000081526004018080602001828103825260108152602001807f496e76616c696420696d6167652049440000000000000000000000000000000081525060200191505060405180910390fd5b60006001600084815260200190815260200160002060000154116106dd576040517f08c379a00000000000000000000000000000000000000000000000000000000081526004018080602001828103825260088152602001807f536f6c64206f757400000000000000000000000000000000000000000000000081525060200191505060405180910390fd5b6002600083815260200190815260200160002054341015610766576040517f08c379a00000000000000000000000000000000000000000000000000000000081526004018080602001828103825260108152602001807f496e73756666696369656e74204554480000000000000000000000000000000081525060200191505060405180910390fd5b60036001600084815260200190815260200160002060020160003373ffffffffffffffffffffffffffffffffffffffff1673ffffffffffffffffffffffffffffffffffffffff168152602001908152602001600020541061082f576040517f08c379a00000000000000000000000000000000000000000000000000000000081526004018080602001828103825260168152602001807f5075726368617365206c696d697420726561636865640000000000000000000081525060200191505060405180910390fd5b600160008381526020019081526020016000206001013390806001815401808255809150509060018203906000526020600020016000909192909190916101000a81548173ffffffffffffffffffffffffffffffffffffffff021916908373ffffffffffffffffffffffffffffffffffffffff160217905550506001600083815260200190815260200160002060000160008154809291906001900391905055506001600083815260200190815260200160002060020160003373ffffffffffffffffffffffffffffffffffffffff1673ffffffffffffffffffffffffffffffffffffffff168152602001908152602001600020600081548092919060010191905055506001600083815260200190815260200160002060030160405180604001604052803373ffffffffffffffffffffffffffffffffffffffff168152602001428152509080600181540180825580915050906001820390600052602060002090600202016000909192909190915060008201518160000160006101000a81548173ffffffffffffffffffffffffffffffffffffffff021916908373ffffffffffffffffffffffffffffffffffffffff16021790555060208201518160010155505050819050919050565b60108110610a71576040517f08c379a00000000000000000000000000000000000000000000000000000000081526004018080602001828103825260108152602001807f496e76616c696420696d6167652049440000000000000000000000000000000081525060200191505060405180910390fd5b60006001600083815260200190815260200160002060020160003373ffffffffffffffffffffffffffffffffffffffff1673ffffffffffffffffffffffffffffffffffffffff1681526020019081526020016000205411610b3a576040517f08c379a00000000000000000000000000000000000000000000000000000000081526004018080602001828103825260198152602001807f596f7520646f206e6f74206f776e207468697320696d6167650000000000000081525060200191505060405180910390fd5b6001600082815260200190815260200160002060020160003373ffffffffffffffffffffffffffffffffffffffff1673ffffffffffffffffffffffffffffffffffffffff1681526020019081526020016000206000815480929190600190039190505550600160008281526020019081526020016000206000016000815480929190600101919050555060006001600083815260200190815260200160002060010190506000818054905090505b6000811115610d45573373ffffffffffffffffffffffffffffffffffffffff16826001830381548110610c1757fe5b9060005260206000200160009054906101000a900473ffffffffffffffffffffffffffffffffffffffff1673ffffffffffffffffffffffffffffffffffffffff161415610d375781600183805490500381548110610c7157fe5b9060005260206000200160009054906101000a900473ffffffffffffffffffffffffffffffffffffffff16826001830381548110610cab57fe5b9060005260206000200160006101000a81548173ffffffffffffffffffffffffffffffffffffffff021916908373ffffffffffffffffffffffffffffffffffffffff16021790555081805480610cfd57fe5b6001900381819060005260206000200160006101000a81549073ffffffffffffffffffffffffffffffffffffffff02191690559055610d45565b808060019003915050610be8565b506000600260008481526020019081526020016000205490503373ffffffffffffffffffffffffffffffffffffffff166108fc829081150290604051600060405180830381858888f19350505050158015610da4573d6000803e3d6000fd5b50505050565b600060016000838152602001908152602001600020600001549050919050565b6000809054906101000a900473ffffffffffffffffffffffffffffffffffffffff1673ffffffffffffffffffffffffffffffffffffffff163373ffffffffffffffffffffffffffffffffffffffff1614610e8c576040517f08c379a00000000000000000000000000000000000000000000000000000000081526004018080602001828103825260188152602001807f4f6e6c79206f776e65722063616e2063616c6c2074686973000000000000000081525060200191505060405180910390fd5b6000809054906101000a900473ffffffffffffffffffffffffffffffffffffffff1673ffffffffffffffffffffffffffffffffffffffff166108fc479081150290604051600060405180830381858888f19350505050158015610ef3573d6000803e3d6000fd5b50565b606060016000838152602001908152602001600020600101805480602002602001604051908101604052809291908181526020018280548015610f8e57602002820191906000526020600020905b8160009054906101000a900473ffffffffffffffffffffffffffffffffffffffff1673ffffffffffffffffffffffffffffffffffffffff1681526020019060010190808311610f44575b50505050509050919050565b60016020528060005260406000206000915090508060000154905081565b6000809054906101000a900473ffffffffffffffffffffffffffffffffffffffff1681565b60006001600084815260200190815260200160002060020160008373ffffffffffffffffffffffffffffffffffffffff1673ffffffffffffffffffffffffffffffffffffffff16815260200190815260200160002054905092915050565b6110436113c5565b61104b6113c5565b60008090505b601081101561109357600160008281526020019081526020016000206000015482826010811061107d57fe5b6020020181815250508080600101915050611051565b508091505090565b60026020528060005260406000206000915090505481565b600381565b600060026000838152602001908152602001600020549050919050565b6060806000600160008581526020019081526020016000206003018054905090506060816040519080825280602002602001820160405280156111275781602001602082028038833980820191505090505b50905060608260405190808252806020026020018201604052801561115b5781602001602082028038833980820191505090505b50905060008090505b8381101561125d5760016000888152602001908152602001600020600301818154811061118d57fe5b906000526020600020906002020160000160009054906101000a900473ffffffffffffffffffffffffffffffffffffffff168382815181106111cb57fe5b602002602001019073ffffffffffffffffffffffffffffffffffffffff16908173ffffffffffffffffffffffffffffffffffffffff168152505060016000888152602001908152602001600020600301818154811061122657fe5b90600052602060002090600202016001015482828151811061124457fe5b6020026020010181815250508080600101915050611164565b50818194509450505050915091565b6000809054906101000a900473ffffffffffffffffffffffffffffffffffffffff1673ffffffffffffffffffffffffffffffffffffffff163373ffffffffffffffffffffffffffffffffffffffff161461132e576040517f08c379a00000000000000000000000000000000000000000000000000000000081526004018080602001828103825260188152602001807f4f6e6c79206f776e65722063616e2063616c6c2074686973000000000000000081525060200191505060405180910390fd5b601082106113a4576040517f08c379a00000000000000000000000000000000000000000000000000000000081526004018080602001828103825260108152602001807f496e76616c696420696d6167652049440000000000000000000000000000000081525060200191505060405180910390fd5b8060026000848152602001908152602001600020819055505050565b601081565b60405180610200016040528060109060208202803883398082019150509050509056fea265627a7a7231582059c3693b921d7c9b3e78f4c62418f7cbe327d5f03264cd2f9e46f1e39b95a34164736f6c63430005100032",
  "source": "// SPDX-License-Identifier: MIT\r\npragma solidity ^0.5.0;\r\n\r\ncontract ImageStore {\r\n    // The owner of the contract who can set prices and withdraw funds.\r\n    address payable public owner;\r\n    \r\n    // Total number of images available.\r\n    uint constant public totalImages = 16;\r\n    \r\n    // Maximum number of purchases allowed per user for each image.\r\n    uint constant public maxPurchasePerUser = 3;\r\n\r\n    // Struct to record a purchase's details.\r\n    struct PurchaseRecord {\r\n        address buyer;\r\n        uint timestamp;\r\n    }\r\n\r\n    // Struct to represent each image's data.\r\n    struct Image {\r\n        uint stock; // Remaining stock of the image.\r\n        address[] buyers; // List of addresses that bought the image.\r\n        mapping(address => uint) purchaseCount; // Mapping to count purchases per buyer.\r\n        PurchaseRecord[] history; // History of all purchase records.\r\n    }\r\n\r\n    // Mapping from image ID to its Image struct.\r\n    mapping(uint => Image) public images;\r\n    // Mapping from image ID to its price.\r\n    mapping(uint => uint) public prices;\r\n\r\n    // Constructor: Initializes the contract setting the deployer as the owner.\r\n    // Sets initial stock for each image to 3 and price to 0.01 ether.\r\n    constructor() public {\r\n        owner = msg.sender;\r\n        for (uint i = 0; i < totalImages; i++) {\r\n            images[i].stock = 3;\r\n            prices[i] = 0.01 ether;\r\n        }\r\n    }\r\n\r\n    // Modifier to restrict function calls to only the owner.\r\n    modifier onlyOwner() {\r\n        require(msg.sender == owner, \"Only owner can call this\");\r\n        _;\r\n    }\r\n\r\n    // Allows the owner to set a new price for a specific image.\r\n    // Checks that the image ID is valid.\r\n    function setPrice(uint imageId, uint newPrice) public onlyOwner {\r\n        require(imageId < totalImages, \"Invalid image ID\");\r\n        prices[imageId] = newPrice;\r\n    }\r\n\r\n    // Returns the current price of a specified image.\r\n    function getPrice(uint imageId) public view returns (uint) {\r\n        return prices[imageId];\r\n    }\r\n\r\n    // Allows a user to purchase an image.\r\n    // Verifies that the image exists, is in stock, the sent value is sufficient,\r\n    // and that the user has not exceeded the purchase limit.\r\n    // On success, decreases stock, records the buyer, updates purchase count, and logs the purchase.\r\n    function buyImage(uint imageId) public payable returns (uint) {\r\n        require(imageId < totalImages, \"Invalid image ID\");\r\n        require(images[imageId].stock > 0, \"Sold out\");\r\n        require(msg.value >= prices[imageId], \"Insufficient ETH\");\r\n        require(images[imageId].purchaseCount[msg.sender] < maxPurchasePerUser, \"Purchase limit reached\");\r\n\r\n        images[imageId].buyers.push(msg.sender);\r\n        images[imageId].stock--;\r\n        images[imageId].purchaseCount[msg.sender]++;\r\n        images[imageId].history.push(PurchaseRecord({\r\n            buyer: msg.sender,\r\n            timestamp: block.timestamp\r\n        }));\r\n\r\n        return imageId;\r\n    }\r\n\r\n    // Allows a user to resell an image they own back to the contract.\r\n    // Checks that the user actually owns the image.\r\n    // Increases the stock, decrements the purchase count, removes the buyer from the buyers array,\r\n    // and refunds the user the price of the image.\r\n    function resellImage(uint imageId) public {\r\n        require(imageId < totalImages, \"Invalid image ID\");\r\n        require(images[imageId].purchaseCount[msg.sender] > 0, \"You do not own this image\");\r\n\r\n        images[imageId].purchaseCount[msg.sender]--;\r\n        images[imageId].stock++;\r\n\r\n        // Remove the last occurrence of msg.sender in the buyers array.\r\n        address[] storage buyers = images[imageId].buyers;\r\n        for (uint i = buyers.length; i > 0; i--) {\r\n            if (buyers[i - 1] == msg.sender) {\r\n                buyers[i - 1] = buyers[buyers.length - 1];\r\n                buyers.pop();\r\n                break;\r\n            }\r\n        }\r\n\r\n        uint refundAmount = prices[imageId];\r\n        msg.sender.transfer(refundAmount);\r\n    }\r\n\r\n    // Returns the current stock of a specified image.\r\n    function getStock(uint imageId) public view returns (uint) {\r\n        return images[imageId].stock;\r\n    }\r\n\r\n    // Returns an array of stocks for all images.\r\n    // Useful for viewing the remaining stock of every image.\r\n    function getAllStocks() public view returns (uint[16] memory) {\r\n        uint[16] memory stocks;\r\n        for (uint i = 0; i < totalImages; i++) {\r\n            stocks[i] = images[i].stock;\r\n        }\r\n        return stocks;\r\n    }\r\n\r\n    // Returns the number of times a user has purchased a specific image.\r\n    // This is useful for enforcing the purchase limit.\r\n    function getUserPurchaseCount(uint imageId, address user) public view returns (uint) {\r\n        return images[imageId].purchaseCount[user];\r\n    }\r\n\r\n    // Returns the list of buyers for a specified image.\r\n    // Can be used for tracking who has purchased the image.\r\n    function getBuyers(uint imageId) public view returns (address[] memory) {\r\n        return images[imageId].buyers;\r\n    }\r\n\r\n    // Returns the purchase history for a specified image.\r\n    // It returns two arrays: one with buyer addresses and one with corresponding purchase timestamps.\r\n    function getPurchaseHistory(uint imageId) public view returns (address[] memory, uint[] memory) {\r\n        uint len = images[imageId].history.length;\r\n        address[] memory addrs = new address[](len);\r\n        uint[] memory times = new uint[](len);\r\n        for (uint i = 0; i < len; i++) {\r\n            addrs[i] = images[imageId].history[i].buyer;\r\n            times[i] = images[imageId].history[i].timestamp;\r\n        }\r\n        return (addrs, times);\r\n    }\r\n\r\n    // Allows the owner to withdraw all ether stored in the contract.\r\n    // Ensures that only the owner can withdraw funds.\r\n    function withdraw() public onlyOwner {\r\n        owner.transfer(address(this).balance);\r\n    }\r\n}",
  "sourcePath": "C:\\Users\\great\\OneDrive\\桌面\\ooo\\DAPP_Gundam BlockChain_Group5\\contracts\\ImageStore.sol",
  "compiler": {
    "name": "solc",
    "version": "0.5.16+commit.9c3226ce.Emscripten.clang"
  },
  "schemaVersion": "3.4.16",
  "updatedAt": "2025-04-06T08:06:44.555Z",
  "networkType": "ethereum",
  "devdoc": {
    "methods": {}
  },
  "userdoc": {
    "methods": {}
  }
}